{
  "_format": "hh-sol-artifact-1",
  "contractName": "RailwayTicketBooking",
  "sourceName": "contracts/Railway-Ticket-Booking.sol",
  "abi": [
    {
      "inputs": [
        {
          "internalType": "uint256",
          "name": "_ticketPrice",
          "type": "uint256"
        },
        {
          "internalType": "uint256",
          "name": "_totalTickets",
          "type": "uint256"
        }
      ],
      "stateMutability": "nonpayable",
      "type": "constructor"
    },
    {
      "anonymous": false,
      "inputs": [
        {
          "indexed": false,
          "internalType": "uint256",
          "name": "ticketId",
          "type": "uint256"
        },
        {
          "indexed": false,
          "internalType": "address",
          "name": "passenger",
          "type": "address"
        }
      ],
      "name": "TicketBooked",
      "type": "event"
    },
    {
      "anonymous": false,
      "inputs": [
        {
          "indexed": false,
          "internalType": "uint256",
          "name": "ticketId",
          "type": "uint256"
        },
        {
          "indexed": false,
          "internalType": "address",
          "name": "passenger",
          "type": "address"
        }
      ],
      "name": "TicketCancelled",
      "type": "event"
    },
    {
      "inputs": [
        {
          "internalType": "uint256",
          "name": "ticketId",
          "type": "uint256"
        }
      ],
      "name": "bookTicket",
      "outputs": [],
      "stateMutability": "payable",
      "type": "function"
    },
    {
      "inputs": [],
      "name": "bookedTickets",
      "outputs": [
        {
          "internalType": "uint256",
          "name": "",
          "type": "uint256"
        }
      ],
      "stateMutability": "view",
      "type": "function"
    },
    {
      "inputs": [
        {
          "internalType": "uint256",
          "name": "ticketId",
          "type": "uint256"
        }
      ],
      "name": "cancelTicket",
      "outputs": [],
      "stateMutability": "nonpayable",
      "type": "function"
    },
    {
      "inputs": [],
      "name": "checkAvailability",
      "outputs": [
        {
          "internalType": "uint256",
          "name": "",
          "type": "uint256"
        }
      ],
      "stateMutability": "view",
      "type": "function"
    },
    {
      "inputs": [],
      "name": "owner",
      "outputs": [
        {
          "internalType": "address",
          "name": "",
          "type": "address"
        }
      ],
      "stateMutability": "view",
      "type": "function"
    },
    {
      "inputs": [],
      "name": "ticketPrice",
      "outputs": [
        {
          "internalType": "uint256",
          "name": "",
          "type": "uint256"
        }
      ],
      "stateMutability": "view",
      "type": "function"
    },
    {
      "inputs": [
        {
          "internalType": "uint256",
          "name": "",
          "type": "uint256"
        }
      ],
      "name": "tickets",
      "outputs": [
        {
          "internalType": "address",
          "name": "passenger",
          "type": "address"
        },
        {
          "internalType": "uint256",
          "name": "amount",
          "type": "uint256"
        },
        {
          "internalType": "bool",
          "name": "isBooked",
          "type": "bool"
        }
      ],
      "stateMutability": "view",
      "type": "function"
    },
    {
      "inputs": [],
      "name": "totalTickets",
      "outputs": [
        {
          "internalType": "uint256",
          "name": "",
          "type": "uint256"
        }
      ],
      "stateMutability": "view",
      "type": "function"
    }
  ],
  "bytecode": "0x608060405234801561001057600080fd5b50604051610d12380380610d12833981810160405281019061003291906100c2565b336000806101000a81548173ffffffffffffffffffffffffffffffffffffffff021916908373ffffffffffffffffffffffffffffffffffffffff16021790555081600181905550806002819055505050610102565b600080fd5b6000819050919050565b61009f8161008c565b81146100aa57600080fd5b50565b6000815190506100bc81610096565b92915050565b600080604083850312156100d9576100d8610087565b5b60006100e7858286016100ad565b92505060206100f8858286016100ad565b9150509250929050565b610c01806101116000396000f3fe60806040526004361061007b5760003560e01c806378a1f8141161004e57806378a1f814146101315780638da5cb5b1461015c578063dd11247e14610187578063ee355b1f146101b25761007b565b80631209b1f6146100805780631c91a65e146100ab57806350b44712146100c7578063537d22bd14610106575b600080fd5b34801561008c57600080fd5b506100956101db565b6040516100a29190610791565b60405180910390f35b6100c560048036038101906100c091906107dd565b6101e1565b005b3480156100d357600080fd5b506100ee60048036038101906100e991906107dd565b6103de565b6040516100fd93929190610866565b60405180910390f35b34801561011257600080fd5b5061011b610435565b6040516101289190610791565b60405180910390f35b34801561013d57600080fd5b5061014661044c565b6040516101539190610791565b60405180910390f35b34801561016857600080fd5b50610171610452565b60405161017e919061089d565b60405180910390f35b34801561019357600080fd5b5061019c610476565b6040516101a99190610791565b60405180910390f35b3480156101be57600080fd5b506101d960048036038101906101d491906107dd565b61047c565b005b60015481565b6002548110610225576040517f08c379a000000000000000000000000000000000000000000000000000000000815260040161021c90610915565b60405180910390fd5b6004600082815260200190815260200160002060020160009054906101000a900460ff1615610289576040517f08c379a000000000000000000000000000000000000000000000000000000000815260040161028090610981565b60405180910390fd5b60015434146102cd576040517f08c379a00000000000000000000000000000000000000000000000000000000081526004016102c4906109ed565b60405180910390fd5b60405180606001604052803373ffffffffffffffffffffffffffffffffffffffff168152602001348152602001600115158152506004600083815260200190815260200160002060008201518160000160006101000a81548173ffffffffffffffffffffffffffffffffffffffff021916908373ffffffffffffffffffffffffffffffffffffffff1602179055506020820151816001015560408201518160020160006101000a81548160ff02191690831515021790555090505060016003600082825461039b9190610a3c565b925050819055507fd14087fb2584de401f2f99902cd6b3b829fc07e6f8636cd430255ad550d0a28a81336040516103d3929190610a70565b60405180910390a150565b60046020528060005260406000206000915090508060000160009054906101000a900473ffffffffffffffffffffffffffffffffffffffff16908060010154908060020160009054906101000a900460ff16905083565b60006003546002546104479190610a99565b905090565b60035481565b60008054906101000a900473ffffffffffffffffffffffffffffffffffffffff1681565b60025481565b60025481106104c0576040517f08c379a00000000000000000000000000000000000000000000000000000000081526004016104b790610915565b60405180910390fd5b6004600082815260200190815260200160002060020160009054906101000a900460ff16610523576040517f08c379a000000000000000000000000000000000000000000000000000000000815260040161051a90610b19565b60405180910390fd5b3373ffffffffffffffffffffffffffffffffffffffff166004600083815260200190815260200160002060000160009054906101000a900473ffffffffffffffffffffffffffffffffffffffff1673ffffffffffffffffffffffffffffffffffffffff16146105c7576040517f08c379a00000000000000000000000000000000000000000000000000000000081526004016105be90610bab565b60405180910390fd5b60006004600083815260200190815260200160002060000160009054906101000a900473ffffffffffffffffffffffffffffffffffffffff1690506000600460008481526020019081526020016000206001015490506040518060600160405280600073ffffffffffffffffffffffffffffffffffffffff16815260200160008152602001600015158152506004600085815260200190815260200160002060008201518160000160006101000a81548173ffffffffffffffffffffffffffffffffffffffff021916908373ffffffffffffffffffffffffffffffffffffffff1602179055506020820151816001015560408201518160020160006101000a81548160ff0219169083151502179055509050506001600360008282546106ed9190610a99565b925050819055508173ffffffffffffffffffffffffffffffffffffffff166108fc829081150290604051600060405180830381858888f1935050505015801561073a573d6000803e3d6000fd5b507e74f3f17e32e594b2aa3c7c8014f4cd8349d20e09fd1f1f40777958606b3530838360405161076b929190610a70565b60405180910390a1505050565b6000819050919050565b61078b81610778565b82525050565b60006020820190506107a66000830184610782565b92915050565b600080fd5b6107ba81610778565b81146107c557600080fd5b50565b6000813590506107d7816107b1565b92915050565b6000602082840312156107f3576107f26107ac565b5b6000610801848285016107c8565b91505092915050565b600073ffffffffffffffffffffffffffffffffffffffff82169050919050565b60006108358261080a565b9050919050565b6108458161082a565b82525050565b60008115159050919050565b6108608161084b565b82525050565b600060608201905061087b600083018661083c565b6108886020830185610782565b6108956040830184610857565b949350505050565b60006020820190506108b2600083018461083c565b92915050565b600082825260208201905092915050565b7f496e76616c6964207469636b6574204944000000000000000000000000000000600082015250565b60006108ff6011836108b8565b915061090a826108c9565b602082019050919050565b6000602082019050818103600083015261092e816108f2565b9050919050565b7f5469636b657420616c726561647920626f6f6b65640000000000000000000000600082015250565b600061096b6015836108b8565b915061097682610935565b602082019050919050565b6000602082019050818103600083015261099a8161095e565b9050919050565b7f496e636f7272656374207469636b657420707269636500000000000000000000600082015250565b60006109d76016836108b8565b91506109e2826109a1565b602082019050919050565b60006020820190508181036000830152610a06816109ca565b9050919050565b7f4e487b7100000000000000000000000000000000000000000000000000000000600052601160045260246000fd5b6000610a4782610778565b9150610a5283610778565b9250828201905080821115610a6a57610a69610a0d565b5b92915050565b6000604082019050610a856000830185610782565b610a92602083018461083c565b9392505050565b6000610aa482610778565b9150610aaf83610778565b9250828203905081811115610ac757610ac6610a0d565b5b92915050565b7f5469636b6574206e6f7420626f6f6b6564000000000000000000000000000000600082015250565b6000610b036011836108b8565b9150610b0e82610acd565b602082019050919050565b60006020820190508181036000830152610b3281610af6565b9050919050565b7f4f6e6c7920746865207469636b6574206f776e65722063616e2063616e63656c60008201527f2074686520626f6f6b696e670000000000000000000000000000000000000000602082015250565b6000610b95602c836108b8565b9150610ba082610b39565b604082019050919050565b60006020820190508181036000830152610bc481610b88565b905091905056fea264697066735822122075d0affd63562f9971240b90744670f112078ea162e8a548b992e002000215b964736f6c63430008110033",
  "linkReferences": {},
  "deployedLinkReferences": {}
}